{
  "contractName": "agriculture",
  "abi": [
    {
      "constant": true,
      "inputs": [
        {
          "name": "",
          "type": "uint256"
        }
      ],
      "name": "goverments_dict",
      "outputs": [
        {
          "name": "id",
          "type": "uint256"
        },
        {
          "name": "price_per_acre",
          "type": "uint256"
        },
        {
          "name": "state_name",
          "type": "string"
        }
      ],
      "payable": false,
      "stateMutability": "view",
      "type": "function",
      "signature": "0x08be55f7"
    },
    {
      "constant": true,
      "inputs": [],
      "name": "number_of_accounts_created",
      "outputs": [
        {
          "name": "",
          "type": "uint256"
        }
      ],
      "payable": false,
      "stateMutability": "view",
      "type": "function",
      "signature": "0x1314b8cc"
    },
    {
      "constant": true,
      "inputs": [],
      "name": "login_successful",
      "outputs": [
        {
          "name": "",
          "type": "string"
        }
      ],
      "payable": false,
      "stateMutability": "view",
      "type": "function",
      "signature": "0x16c5e5f6"
    },
    {
      "constant": true,
      "inputs": [],
      "name": "number_of_farmers",
      "outputs": [
        {
          "name": "",
          "type": "uint256"
        }
      ],
      "payable": false,
      "stateMutability": "view",
      "type": "function",
      "signature": "0x2f28df64"
    },
    {
      "constant": true,
      "inputs": [],
      "name": "number_of_goverment",
      "outputs": [
        {
          "name": "",
          "type": "uint256"
        }
      ],
      "payable": false,
      "stateMutability": "view",
      "type": "function",
      "signature": "0x3814276a"
    },
    {
      "constant": true,
      "inputs": [
        {
          "name": "",
          "type": "uint256"
        }
      ],
      "name": "database_accounts",
      "outputs": [
        {
          "name": "id",
          "type": "uint256"
        },
        {
          "name": "username",
          "type": "string"
        },
        {
          "name": "password",
          "type": "string"
        }
      ],
      "payable": false,
      "stateMutability": "view",
      "type": "function",
      "signature": "0x495b798d"
    },
    {
      "constant": true,
      "inputs": [],
      "name": "number_of_blocks",
      "outputs": [
        {
          "name": "",
          "type": "uint256"
        }
      ],
      "payable": false,
      "stateMutability": "view",
      "type": "function",
      "signature": "0x55b7b1fc"
    },
    {
      "constant": true,
      "inputs": [
        {
          "name": "",
          "type": "uint256"
        }
      ],
      "name": "blockchain",
      "outputs": [
        {
          "name": "id",
          "type": "uint256"
        },
        {
          "name": "data",
          "type": "string"
        },
        {
          "name": "nonce",
          "type": "uint256"
        },
        {
          "name": "hash",
          "type": "address"
        },
        {
          "name": "previous_hash",
          "type": "address"
        },
        {
          "name": "timestamp",
          "type": "uint256"
        }
      ],
      "payable": false,
      "stateMutability": "view",
      "type": "function",
      "signature": "0xc25b1eaf"
    },
    {
      "constant": true,
      "inputs": [],
      "name": "current_account_id",
      "outputs": [
        {
          "name": "",
          "type": "uint256"
        }
      ],
      "payable": false,
      "stateMutability": "view",
      "type": "function",
      "signature": "0xc651a85f"
    },
    {
      "constant": true,
      "inputs": [
        {
          "name": "",
          "type": "uint256"
        }
      ],
      "name": "farmers_dict",
      "outputs": [
        {
          "name": "id",
          "type": "uint256"
        },
        {
          "name": "adhar_number",
          "type": "string"
        },
        {
          "name": "name_of_farmer",
          "type": "string"
        },
        {
          "name": "validity",
          "type": "bool"
        },
        {
          "name": "info",
          "type": "string"
        },
        {
          "name": "bank_account",
          "type": "string"
        },
        {
          "name": "acre_of_land",
          "type": "string"
        },
        {
          "name": "residence_sate",
          "type": "string"
        }
      ],
      "payable": false,
      "stateMutability": "view",
      "type": "function",
      "signature": "0xc71ed7ad"
    },
    {
      "constant": false,
      "inputs": [],
      "name": "execute",
      "outputs": [],
      "payable": false,
      "stateMutability": "nonpayable",
      "type": "function",
      "signature": "0x61461954"
    },
    {
      "constant": false,
      "inputs": [
        {
          "name": "_username",
          "type": "string"
        },
        {
          "name": "_password",
          "type": "string"
        }
      ],
      "name": "databaseAccount",
      "outputs": [],
      "payable": false,
      "stateMutability": "nonpayable",
      "type": "function",
      "signature": "0xe7f16615"
    },
    {
      "constant": false,
      "inputs": [
        {
          "name": "_username",
          "type": "string"
        },
        {
          "name": "_password",
          "type": "string"
        }
      ],
      "name": "login",
      "outputs": [],
      "payable": false,
      "stateMutability": "nonpayable",
      "type": "function",
      "signature": "0x58467dbc"
    },
    {
      "constant": false,
      "inputs": [
        {
          "name": "_adhar_number",
          "type": "string"
        },
        {
          "name": "_name_of_farmer",
          "type": "string"
        },
        {
          "name": "_bank_account",
          "type": "string"
        },
        {
          "name": "_acre_of_land",
          "type": "string"
        },
        {
          "name": "_state_of_residence",
          "type": "string"
        }
      ],
      "name": "createFarmerAccount",
      "outputs": [],
      "payable": false,
      "stateMutability": "nonpayable",
      "type": "function",
      "signature": "0x96aa1d47"
    },
    {
      "constant": false,
      "inputs": [
        {
          "name": "_price_per_acre",
          "type": "uint256"
        },
        {
          "name": "_state_name",
          "type": "string"
        }
      ],
      "name": "createGovermentAccount",
      "outputs": [],
      "payable": false,
      "stateMutability": "nonpayable",
      "type": "function",
      "signature": "0x0c38f0f6"
    }
  ],
  "bytecode": "0x608060405260006004556000600555600060065560006007556000600855600060095534801561002e57600080fd5b50611a398061003e6000396000f3fe6080604052600436106100da5763ffffffff7c010000000000000000000000000000000000000000000000000000000060003504166308be55f781146100df5780630c38f0f61461018f5780631314b8cc1461024b57806316c5e5f6146102725780632f28df64146102fc5780633814276a14610311578063495b798d1461032657806355b7b1fc1461043557806358467dbc1461044a578063614619541461058457806396aa1d4714610599578063c25b1eaf14610868578063c651a85f14610945578063c71ed7ad1461095a578063e7f1661514610c0c575b600080fd5b3480156100eb57600080fd5b506101096004803603602081101561010257600080fd5b5035610d46565b6040518084815260200183815260200180602001828103825283818151815260200191508051906020019080838360005b8381101561015257818101518382015260200161013a565b50505050905090810190601f16801561017f5780820380516001836020036101000a031916815260200191505b5094505050505060405180910390f35b34801561019b57600080fd5b50610249600480360360408110156101b257600080fd5b813591908101906040810160208201356401000000008111156101d457600080fd5b8201836020820111156101e657600080fd5b8035906020019184600183028401116401000000008311171561020857600080fd5b91908080601f016020809104026020016040519081016040528093929190818152602001838380828437600092019190915250929550610e08945050505050565b005b34801561025757600080fd5b50610260610e4d565b60408051918252519081900360200190f35b34801561027e57600080fd5b50610287610e53565b6040805160208082528351818301528351919283929083019185019080838360005b838110156102c15781810151838201526020016102a9565b50505050905090810190601f1680156102ee5780820380516001836020036101000a031916815260200191505b509250505060405180910390f35b34801561030857600080fd5b50610260610ee1565b34801561031d57600080fd5b50610260610ee7565b34801561033257600080fd5b506103506004803603602081101561034957600080fd5b5035610eed565b604051808481526020018060200180602001838103835285818151815260200191508051906020019080838360005b8381101561039757818101518382015260200161037f565b50505050905090810190601f1680156103c45780820380516001836020036101000a031916815260200191505b50838103825284518152845160209182019186019080838360005b838110156103f75781810151838201526020016103df565b50505050905090810190601f1680156104245780820380516001836020036101000a031916815260200191505b509550505050505060405180910390f35b34801561044157600080fd5b50610260610ff1565b34801561045657600080fd5b506102496004803603604081101561046d57600080fd5b81019060208101813564010000000081111561048857600080fd5b82018360208201111561049a57600080fd5b803590602001918460018302840111640100000000831117156104bc57600080fd5b91908080601f016020809104026020016040519081016040528093929190818152602001838380828437600092019190915250929594936020810193503591505064010000000081111561050f57600080fd5b82018360208201111561052157600080fd5b8035906020019184600183028401116401000000008311171561054357600080fd5b91908080601f016020809104026020016040519081016040528093929190818152602001838380828437600092019190915250929550610ff7945050505050565b34801561059057600080fd5b50610249611217565b3480156105a557600080fd5b50610249600480360360a08110156105bc57600080fd5b8101906020810181356401000000008111156105d757600080fd5b8201836020820111156105e957600080fd5b8035906020019184600183028401116401000000008311171561060b57600080fd5b91908080601f016020809104026020016040519081016040528093929190818152602001838380828437600092019190915250929594936020810193503591505064010000000081111561065e57600080fd5b82018360208201111561067057600080fd5b8035906020019184600183028401116401000000008311171561069257600080fd5b91908080601f01602080910402602001604051908101604052809392919081815260200183838082843760009201919091525092959493602081019350359150506401000000008111156106e557600080fd5b8201836020820111156106f757600080fd5b8035906020019184600183028401116401000000008311171561071957600080fd5b91908080601f016020809104026020016040519081016040528093929190818152602001838380828437600092019190915250929594936020810193503591505064010000000081111561076c57600080fd5b82018360208201111561077e57600080fd5b803590602001918460018302840111640100000000831117156107a057600080fd5b91908080601f01602080910402602001604051908101604052809392919081815260200183838082843760009201919091525092959493602081019350359150506401000000008111156107f357600080fd5b82018360208201111561080557600080fd5b8035906020019184600183028401116401000000008311171561082757600080fd5b91908080601f01602080910402602001604051908101604052809392919081815260200183838082843760009201919091525092955061130a945050505050565b34801561087457600080fd5b506108926004803603602081101561088b57600080fd5b503561147c565b6040805187815290810185905273ffffffffffffffffffffffffffffffffffffffff80851660608301528316608082015260a0810182905260c06020808301828152885192840192909252875160e084019189019080838360005b838110156109055781810151838201526020016108ed565b50505050905090810190601f1680156109325780820380516001836020036101000a031916815260200191505b5097505050505050505060405180910390f35b34801561095157600080fd5b50610260611554565b34801561096657600080fd5b506109846004803603602081101561097d57600080fd5b503561155a565b604051808981526020018060200180602001881515151581526020018060200180602001806020018060200187810387528e818151815260200191508051906020019080838360005b838110156109e55781810151838201526020016109cd565b50505050905090810190601f168015610a125780820380516001836020036101000a031916815260200191505b5087810386528d5181528d516020918201918f019080838360005b83811015610a45578181015183820152602001610a2d565b50505050905090810190601f168015610a725780820380516001836020036101000a031916815260200191505b5087810385528b5181528b516020918201918d019080838360005b83811015610aa5578181015183820152602001610a8d565b50505050905090810190601f168015610ad25780820380516001836020036101000a031916815260200191505b5087810384528a5181528a516020918201918c019080838360005b83811015610b05578181015183820152602001610aed565b50505050905090810190601f168015610b325780820380516001836020036101000a031916815260200191505b5087810383528951815289516020918201918b019080838360005b83811015610b65578181015183820152602001610b4d565b50505050905090810190601f168015610b925780820380516001836020036101000a031916815260200191505b5087810382528851815288516020918201918a019080838360005b83811015610bc5578181015183820152602001610bad565b50505050905090810190601f168015610bf25780820380516001836020036101000a031916815260200191505b509e50505050505050505050505050505060405180910390f35b348015610c1857600080fd5b5061024960048036036040811015610c2f57600080fd5b810190602081018135640100000000811115610c4a57600080fd5b820183602082011115610c5c57600080fd5b80359060200191846001830284011164010000000083111715610c7e57600080fd5b91908080601f0160208091040260200160405190810160405280939291908181526020018383808284376000920191909152509295949360208101935035915050640100000000811115610cd157600080fd5b820183602082011115610ce357600080fd5b80359060200191846001830284011164010000000083111715610d0557600080fd5b91908080601f0160208091040260200160405190810160405280939291908181526020018383808284376000920191909152509295506118db945050505050565b6001602052806000526040600020600091509050806000015490806001015490806002018054600181600116156101000203166002900480601f016020809104026020016040519081016040528092919081815260200182805460018160011615610100020316600290048015610dfe5780601f10610dd357610100808354040283529160200191610dfe565b820191906000526020600020905b815481529060010190602001808311610de157829003601f168201915b5050505050905083565b60058054600190810180835560008181526020838152604080832093845592909301869055925483529091208251610e4892600290920191840190611972565b505050565b60075481565b600a805460408051602060026001851615610100026000190190941693909304601f81018490048402820184019092528181529291830182828015610ed95780601f10610eae57610100808354040283529160200191610ed9565b820191906000526020600020905b815481529060010190602001808311610ebc57829003601f168201915b505050505081565b60045481565b60055481565b6003602090815260009182526040918290208054600180830180548651600293821615610100026000190190911692909204601f810186900486028301860190965285825291949293909290830182828015610f8a5780601f10610f5f57610100808354040283529160200191610f8a565b820191906000526020600020905b815481529060010190602001808311610f6d57829003601f168201915b50505060028085018054604080516020601f6000196101006001871615020190941695909504928301859004850281018501909152818152959695945090925090830182828015610dfe5780601f10610dd357610100808354040283529160200191610dfe565b60065481565b60015b6007548111610e48576110bb600360008381526020019081526020016000206001018054600181600116156101000203166002900480601f0160208091040260200160405190810160405280929190818152602001828054600181600116156101000203166002900480156110b05780601f10611085576101008083540402835291602001916110b0565b820191906000526020600020905b81548152906001019060200180831161109357829003601f168201915b505050505084611938565b1561120f576000818152600360209081526040918290206002908101805484516001821615610100026000190190911692909204601f810184900484028301840190945283825261116793919290919083018282801561115c5780601f106111315761010080835404028352916020019161115c565b820191906000526020600020905b81548152906001019060200180831161113f57829003601f168201915b505050505083611938565b156111c95760008181526003602090815260409182902054600855815180830190925260108083527f6c6f67696e207375636365737366756c00000000000000000000000000000000929091019182526111c391600a91611972565b5061120f565b6040805180820190915260128082527f6c6f67696e20756e7375636365737366756c0000000000000000000000000000602090920191825261120d91600a91611972565b505b600101610ffa565b6009545b60045481116113015760008181526020819052604090206003015460ff1615156112f95760008181526020818152604080832060038101805460ff191660011790558151608081018352605381527f594f555220444f43554d454e545320415245205452554520414e442048454e438185019081527f4520544845205452414e53414354494f4e20484153204245454e20444f4e4521938201939093527f20434f4e47524154554c4154494f4e532121210000000000000000000000000060608201528585529390925291516112f79260049092019190611972565b505b60010161121b565b50600454600955565b60048054600190810191829055600091825260208281526040909220875161133a93919092019190880190611972565b50600454600090815260208181526040909120855161136192600290920191870190611972565b50600454600090815260208181526040909120845161138892600590920191860190611972565b5060045460009081526020818152604090912083516113af92600690920191850190611972565b5060045460009081526020818152604090912082516113d692600790920191840190611972565b50600480546000818152602081815260408083208481556008949094556003909301805460ff191690558251606081018452603981527f504c4541534520574149542054494c4c20414e204f4646494349414c20434f4e8183019081527f4649524d5320594f555220444f43554d454e54532e2e2e2e2e00000000000000828601528554845291839052929091209151611474939290920191611972565b505050505050565b60026020818152600092835260409283902080546001808301805487519281161561010002600019011695909504601f81018590048502820185019096528581529094919390929091908301828280156115175780601f106114ec57610100808354040283529160200191611517565b820191906000526020600020905b8154815290600101906020018083116114fa57829003601f168201915b5050506002840154600385015460048601546005909601549495919473ffffffffffffffffffffffffffffffffffffffff91821694509116915086565b60085481565b600060208181529181526040908190208054600180830180548551600293821615610100026000190190911692909204601f81018790048702830187019095528482529194929390928301828280156115f45780601f106115c9576101008083540402835291602001916115f4565b820191906000526020600020905b8154815290600101906020018083116115d757829003601f168201915b50505060028085018054604080516020601f60001961010060018716150201909416959095049283018590048502810185019091528181529596959450909250908301828280156116865780601f1061165b57610100808354040283529160200191611686565b820191906000526020600020905b81548152906001019060200180831161166957829003601f168201915b50505050600383015460048401805460408051602060026101006001861615026000190190941693909304601f8101849004840282018401909252818152959660ff90941695939450908301828280156117215780601f106116f657610100808354040283529160200191611721565b820191906000526020600020905b81548152906001019060200180831161170457829003601f168201915b5050505060058301805460408051602060026001851615610100026000190190941693909304601f81018490048402820184019092528181529495949350908301828280156117b15780601f10611786576101008083540402835291602001916117b1565b820191906000526020600020905b81548152906001019060200180831161179457829003601f168201915b5050505060068301805460408051602060026001851615610100026000190190941693909304601f81018490048402820184019092528181529495949350908301828280156118415780601f1061181657610100808354040283529160200191611841565b820191906000526020600020905b81548152906001019060200180831161182457829003601f168201915b5050505060078301805460408051602060026001851615610100026000190190941693909304601f81018490048402820184019092528181529495949350908301828280156118d15780601f106118a6576101008083540402835291602001916118d1565b820191906000526020600020905b8154815290600101906020018083116118b457829003601f168201915b5050505050905088565b600780546001908101918290556000828152600360209081526040909120928355845161190f939092019190850190611972565b5060075460009081526003602090815260409091208251610e4892600290920191840190611972565b6000606083905060608390508080519060200120828051906020012014156119655760019250505061196c565b6000925050505b92915050565b828054600181600116156101000203166002900490600052602060002090601f016020900481019282601f106119b357805160ff19168380011785556119e0565b828001600101855582156119e0579182015b828111156119e05782518255916020019190600101906119c5565b506119ec9291506119f0565b5090565b611a0a91905b808211156119ec57600081556001016119f6565b9056fea165627a7a7230582041e7f91b1f5ac09abd3d727fe537718cf9b85480b6ab613d216ce44e0348701c0029",
  "source": "pragma solidity ^0.5.0;\r\n//import \"github.com/ethereum/dapp-bin/library/stringUtils.sol\";\r\n\r\ncontract agriculture {\r\n\r\n\r\n  struct farmer {\r\n    uint id;\r\n    string adhar_number;\r\n    string name_of_farmer;\r\n    //string address_of_farmer;\r\n    bool validity;  //is he eligible to to get the goverment's money\r\n    string info; //information provided by the goverment regarding the payment of money.\r\n    string bank_account;\r\n    string acre_of_land;  //the acre of land the farmer owns\r\n    string residence_sate;  //the state where his farm belongs.\r\n\r\n  }\r\n\r\n  struct goverment {\r\n    uint id;\r\n    uint price_per_acre;  //this is usually decided by the state goverment how much money they want to give to their farmers depending upon the acre's of land they own.\r\n    string state_name;\r\n\r\n  }\r\n\r\n  struct blockchain_structure {\r\n\r\n      uint id;\r\n      string data;\r\n      uint nonce;\r\n      address hash;\r\n      address previous_hash;\r\n      uint timestamp;\r\n\r\n  }\r\n\r\n  struct database_account {\r\n\r\n      uint id;\r\n      string username;\r\n      string password;\r\n  }\r\n\r\n  mapping(uint => farmer) public farmers_dict;\r\n  mapping(uint => goverment) public goverments_dict;\r\n  mapping(uint => blockchain_structure) public blockchain;\r\n  mapping(uint => database_account)public database_accounts;\r\n\r\n\r\n  uint public number_of_farmers = 0;\r\n  uint public number_of_goverment = 0;\r\n  uint public number_of_blocks = 0;\r\n  uint public number_of_accounts_created = 0;\r\n  uint public current_account_id = 0;\r\n  uint lastcheckForValidity_numberOfFarmers = 0;\r\n  string public login_successful;\r\n\r\n  function execute() public{\r\n\r\n      for(uint i = lastcheckForValidity_numberOfFarmers;i<=number_of_farmers;i++){\r\n          if(farmers_dict[i].validity == false){\r\n              farmers_dict[i].validity =true;\r\n              farmers_dict[i].info = \"YOUR DOCUMENTS ARE TRUE AND HENCE THE TRANSACTION HAS BEEN DONE! CONGRATULATIONS!!!\";\r\n          }\r\n      }\r\n      lastcheckForValidity_numberOfFarmers = number_of_farmers;\r\n\r\n  }\r\n\r\n  function databaseAccount(string memory _username, string memory _password) public {\r\n\r\n        number_of_accounts_created++;\r\n        database_accounts[number_of_accounts_created].id = number_of_accounts_created;\r\n        database_accounts[number_of_accounts_created].username = _username;\r\n        database_accounts[number_of_accounts_created].password = _password;\r\n\r\n\r\n  }\r\n\r\n  function equal(string memory _a, string memory _b) private pure returns(bool){\r\n      bytes memory aa = bytes(_a);\r\n      bytes memory bb = bytes(_b);\r\n\r\n      if(keccak256(aa) == keccak256(bb))\r\n        return true;\r\n      else\r\n        return false;\r\n  }\r\n\r\n\r\n  function login(string memory _username,string memory _password) public {\r\n        for(uint i=1;i<=number_of_accounts_created;i++){\r\n            if(equal(database_accounts[i].username,_username)){\r\n                if(equal(database_accounts[i].password,_password)){\r\n                    current_account_id = database_accounts[i].id;\r\n                    login_successful = \"login successful\";\r\n                }\r\n                else{\r\n                login_successful = \"login unsuccessful\";\r\n                }\r\n            }\r\n        }\r\n  }\r\n\r\n  function createFarmerAccount(string memory _adhar_number,string memory _name_of_farmer,\r\n                                string memory _bank_account ,string memory _acre_of_land,string memory _state_of_residence) public\r\n\r\n        {\r\n\r\n\r\n\r\n\r\n            number_of_farmers++;\r\n            farmers_dict[number_of_farmers].adhar_number = _adhar_number;\r\n            farmers_dict[number_of_farmers].name_of_farmer = _name_of_farmer;\r\n            //farmers_dict[number_of_farmers].address_of_farmer = _address_of_farmer;\r\n            farmers_dict[number_of_farmers].bank_account = _bank_account;\r\n            farmers_dict[number_of_farmers].acre_of_land = _acre_of_land;\r\n            farmers_dict[number_of_farmers].residence_sate = _state_of_residence;\r\n            farmers_dict[number_of_farmers].id = number_of_farmers;\r\n            current_account_id = number_of_farmers;\r\n            farmers_dict[number_of_farmers].validity = false;\r\n            farmers_dict[number_of_farmers].info = \"PLEASE WAIT TILL AN OFFICIAL CONFIRMS YOUR DOCUMENTS.....\";\r\n\r\n\r\n        }\r\n\r\n  function createGovermentAccount(uint _price_per_acre,string memory _state_name) public{\r\n\r\n            number_of_goverment++;\r\n            goverments_dict[number_of_goverment].id = number_of_goverment;\r\n            goverments_dict[number_of_goverment].price_per_acre = _price_per_acre;\r\n            goverments_dict[number_of_goverment].state_name = _state_name;\r\n\r\n  }\r\n  /*\r\n\r\n  function checkValidityOfDocuments(string memory _state_name) public returns(string memory) {\r\n\r\n            if(lastcheckForValidity_numberOfFarmers == 0){\r\n                return(\"no farmers added\");\r\n            }\r\n            else{\r\n                for(uint i=lastcheckForValidity_numberOfFarmers;i<=number_of_farmers;i++){\r\n                    if(farmers_dict[i].validity == false){\r\n\r\n                    }\r\n                }\r\n            }\r\n\r\n  }\r\n\r\n  */\r\n\r\n\r\n}\r\n",
  "sourcePath": "D:/blockchain_agriculture/Agriculture-blockchain/contracts/agriculture.sol",
  "compiler": {
    "name": "solc",
    "version": "0.5.0+commit.1d4f565a.Emscripten.clang"
  },
  "schemaVersion": "3.0.2",
  "updatedAt": "2020-08-02T09:27:22.503Z",
  "devdoc": {
    "methods": {}
  },
  "userdoc": {
    "methods": {}
  }
}