{
  "contractName": "agriculture",
  "abi": [
    {
      "constant": true,
      "inputs": [
        {
          "name": "",
          "type": "uint256"
        }
      ],
      "name": "goverments_dict",
      "outputs": [
        {
          "name": "id",
          "type": "uint256"
        },
        {
          "name": "price_per_acre",
          "type": "uint256"
        },
        {
          "name": "state_name",
          "type": "string"
        }
      ],
      "payable": false,
      "stateMutability": "view",
      "type": "function",
      "signature": "0x08be55f7"
    },
    {
      "constant": true,
      "inputs": [],
      "name": "number_of_accounts_created",
      "outputs": [
        {
          "name": "",
          "type": "uint256"
        }
      ],
      "payable": false,
      "stateMutability": "view",
      "type": "function",
      "signature": "0x1314b8cc"
    },
    {
      "constant": true,
      "inputs": [],
      "name": "number_of_farmers",
      "outputs": [
        {
          "name": "",
          "type": "uint256"
        }
      ],
      "payable": false,
      "stateMutability": "view",
      "type": "function",
      "signature": "0x2f28df64"
    },
    {
      "constant": true,
      "inputs": [],
      "name": "number_of_goverment",
      "outputs": [
        {
          "name": "",
          "type": "uint256"
        }
      ],
      "payable": false,
      "stateMutability": "view",
      "type": "function",
      "signature": "0x3814276a"
    },
    {
      "constant": true,
      "inputs": [
        {
          "name": "",
          "type": "uint256"
        }
      ],
      "name": "database_accounts",
      "outputs": [
        {
          "name": "id",
          "type": "uint256"
        },
        {
          "name": "username",
          "type": "string"
        },
        {
          "name": "password",
          "type": "string"
        }
      ],
      "payable": false,
      "stateMutability": "view",
      "type": "function",
      "signature": "0x495b798d"
    },
    {
      "constant": true,
      "inputs": [],
      "name": "number_of_blocks",
      "outputs": [
        {
          "name": "",
          "type": "uint256"
        }
      ],
      "payable": false,
      "stateMutability": "view",
      "type": "function",
      "signature": "0x55b7b1fc"
    },
    {
      "constant": true,
      "inputs": [
        {
          "name": "",
          "type": "uint256"
        }
      ],
      "name": "blockchain",
      "outputs": [
        {
          "name": "id",
          "type": "uint256"
        },
        {
          "name": "data",
          "type": "string"
        },
        {
          "name": "nonce",
          "type": "uint256"
        },
        {
          "name": "hash",
          "type": "address"
        },
        {
          "name": "previous_hash",
          "type": "address"
        },
        {
          "name": "timestamp",
          "type": "uint256"
        }
      ],
      "payable": false,
      "stateMutability": "view",
      "type": "function",
      "signature": "0xc25b1eaf"
    },
    {
      "constant": true,
      "inputs": [],
      "name": "current_account_id",
      "outputs": [
        {
          "name": "",
          "type": "uint256"
        }
      ],
      "payable": false,
      "stateMutability": "view",
      "type": "function",
      "signature": "0xc651a85f"
    },
    {
      "constant": true,
      "inputs": [
        {
          "name": "",
          "type": "uint256"
        }
      ],
      "name": "farmers_dict",
      "outputs": [
        {
          "name": "id",
          "type": "uint256"
        },
        {
          "name": "adhar_number",
          "type": "string"
        },
        {
          "name": "name_of_farmer",
          "type": "string"
        },
        {
          "name": "validity",
          "type": "bool"
        },
        {
          "name": "info",
          "type": "string"
        },
        {
          "name": "bank_account",
          "type": "string"
        },
        {
          "name": "acre_of_land",
          "type": "string"
        },
        {
          "name": "residence_sate",
          "type": "string"
        }
      ],
      "payable": false,
      "stateMutability": "view",
      "type": "function",
      "signature": "0xc71ed7ad"
    },
    {
      "constant": false,
      "inputs": [
        {
          "name": "_username",
          "type": "string"
        },
        {
          "name": "_password",
          "type": "string"
        }
      ],
      "name": "databaseAccount",
      "outputs": [],
      "payable": false,
      "stateMutability": "nonpayable",
      "type": "function",
      "signature": "0xe7f16615"
    },
    {
      "constant": false,
      "inputs": [
        {
          "name": "_username",
          "type": "string"
        },
        {
          "name": "_password",
          "type": "string"
        }
      ],
      "name": "login",
      "outputs": [],
      "payable": false,
      "stateMutability": "nonpayable",
      "type": "function",
      "signature": "0x58467dbc"
    },
    {
      "constant": false,
      "inputs": [
        {
          "name": "_adhar_number",
          "type": "string"
        },
        {
          "name": "_name_of_farmer",
          "type": "string"
        },
        {
          "name": "_bank_account",
          "type": "string"
        },
        {
          "name": "_acre_of_land",
          "type": "string"
        },
        {
          "name": "_state_of_residence",
          "type": "string"
        }
      ],
      "name": "createFarmerAccount",
      "outputs": [],
      "payable": false,
      "stateMutability": "nonpayable",
      "type": "function",
      "signature": "0x96aa1d47"
    },
    {
      "constant": false,
      "inputs": [
        {
          "name": "_price_per_acre",
          "type": "uint256"
        },
        {
          "name": "_state_name",
          "type": "string"
        }
      ],
      "name": "createGovermentAccount",
      "outputs": [],
      "payable": false,
      "stateMutability": "nonpayable",
      "type": "function",
      "signature": "0x0c38f0f6"
    }
  ],
  "bytecode": "0x608060405260006004556000600555600060065560006007556000600855600060095534801561002e57600080fd5b5061176d8061003e6000396000f3fe6080604052600436106100c45763ffffffff7c010000000000000000000000000000000000000000000000000000000060003504166308be55f781146100c95780630c38f0f6146101795780631314b8cc146102355780632f28df641461025c5780633814276a14610271578063495b798d1461028657806355b7b1fc1461039557806358467dbc146103aa57806396aa1d47146104e4578063c25b1eaf146107b3578063c651a85f14610890578063c71ed7ad146108a5578063e7f1661514610b57575b600080fd5b3480156100d557600080fd5b506100f3600480360360208110156100ec57600080fd5b5035610c91565b6040518084815260200183815260200180602001828103825283818151815260200191508051906020019080838360005b8381101561013c578181015183820152602001610124565b50505050905090810190601f1680156101695780820380516001836020036101000a031916815260200191505b5094505050505060405180910390f35b34801561018557600080fd5b506102336004803603604081101561019c57600080fd5b813591908101906040810160208201356401000000008111156101be57600080fd5b8201836020820111156101d057600080fd5b803590602001918460018302840111640100000000831117156101f257600080fd5b91908080601f016020809104026020016040519081016040528093929190818152602001838380828437600092019190915250929550610d53945050505050565b005b34801561024157600080fd5b5061024a610d98565b60408051918252519081900360200190f35b34801561026857600080fd5b5061024a610d9e565b34801561027d57600080fd5b5061024a610da4565b34801561029257600080fd5b506102b0600480360360208110156102a957600080fd5b5035610daa565b604051808481526020018060200180602001838103835285818151815260200191508051906020019080838360005b838110156102f75781810151838201526020016102df565b50505050905090810190601f1680156103245780820380516001836020036101000a031916815260200191505b50838103825284518152845160209182019186019080838360005b8381101561035757818101518382015260200161033f565b50505050905090810190601f1680156103845780820380516001836020036101000a031916815260200191505b509550505050505060405180910390f35b3480156103a157600080fd5b5061024a610eae565b3480156103b657600080fd5b50610233600480360360408110156103cd57600080fd5b8101906020810181356401000000008111156103e857600080fd5b8201836020820111156103fa57600080fd5b8035906020019184600183028401116401000000008311171561041c57600080fd5b91908080601f016020809104026020016040519081016040528093929190818152602001838380828437600092019190915250929594936020810193503591505064010000000081111561046f57600080fd5b82018360208201111561048157600080fd5b803590602001918460018302840111640100000000831117156104a357600080fd5b91908080601f016020809104026020016040519081016040528093929190818152602001838380828437600092019190915250929550610eb4945050505050565b3480156104f057600080fd5b50610233600480360360a081101561050757600080fd5b81019060208101813564010000000081111561052257600080fd5b82018360208201111561053457600080fd5b8035906020019184600183028401116401000000008311171561055657600080fd5b91908080601f01602080910402602001604051908101604052809392919081815260200183838082843760009201919091525092959493602081019350359150506401000000008111156105a957600080fd5b8201836020820111156105bb57600080fd5b803590602001918460018302840111640100000000831117156105dd57600080fd5b91908080601f016020809104026020016040519081016040528093929190818152602001838380828437600092019190915250929594936020810193503591505064010000000081111561063057600080fd5b82018360208201111561064257600080fd5b8035906020019184600183028401116401000000008311171561066457600080fd5b91908080601f01602080910402602001604051908101604052809392919081815260200183838082843760009201919091525092959493602081019350359150506401000000008111156106b757600080fd5b8201836020820111156106c957600080fd5b803590602001918460018302840111640100000000831117156106eb57600080fd5b91908080601f016020809104026020016040519081016040528093929190818152602001838380828437600092019190915250929594936020810193503591505064010000000081111561073e57600080fd5b82018360208201111561075057600080fd5b8035906020019184600183028401116401000000008311171561077257600080fd5b91908080601f016020809104026020016040519081016040528093929190818152602001838380828437600092019190915250929550611044945050505050565b3480156107bf57600080fd5b506107dd600480360360208110156107d657600080fd5b50356111b0565b6040805187815290810185905273ffffffffffffffffffffffffffffffffffffffff80851660608301528316608082015260a0810182905260c06020808301828152885192840192909252875160e084019189019080838360005b83811015610850578181015183820152602001610838565b50505050905090810190601f16801561087d5780820380516001836020036101000a031916815260200191505b5097505050505050505060405180910390f35b34801561089c57600080fd5b5061024a611288565b3480156108b157600080fd5b506108cf600480360360208110156108c857600080fd5b503561128e565b604051808981526020018060200180602001881515151581526020018060200180602001806020018060200187810387528e818151815260200191508051906020019080838360005b83811015610930578181015183820152602001610918565b50505050905090810190601f16801561095d5780820380516001836020036101000a031916815260200191505b5087810386528d5181528d516020918201918f019080838360005b83811015610990578181015183820152602001610978565b50505050905090810190601f1680156109bd5780820380516001836020036101000a031916815260200191505b5087810385528b5181528b516020918201918d019080838360005b838110156109f05781810151838201526020016109d8565b50505050905090810190601f168015610a1d5780820380516001836020036101000a031916815260200191505b5087810384528a5181528a516020918201918c019080838360005b83811015610a50578181015183820152602001610a38565b50505050905090810190601f168015610a7d5780820380516001836020036101000a031916815260200191505b5087810383528951815289516020918201918b019080838360005b83811015610ab0578181015183820152602001610a98565b50505050905090810190601f168015610add5780820380516001836020036101000a031916815260200191505b5087810382528851815288516020918201918a019080838360005b83811015610b10578181015183820152602001610af8565b50505050905090810190601f168015610b3d5780820380516001836020036101000a031916815260200191505b509e50505050505050505050505050505060405180910390f35b348015610b6357600080fd5b5061023360048036036040811015610b7a57600080fd5b810190602081018135640100000000811115610b9557600080fd5b820183602082011115610ba757600080fd5b80359060200191846001830284011164010000000083111715610bc957600080fd5b91908080601f0160208091040260200160405190810160405280939291908181526020018383808284376000920191909152509295949360208101935035915050640100000000811115610c1c57600080fd5b820183602082011115610c2e57600080fd5b80359060200191846001830284011164010000000083111715610c5057600080fd5b91908080601f01602080910402602001604051908101604052809392919081815260200183838082843760009201919091525092955061160f945050505050565b6001602052806000526040600020600091509050806000015490806001015490806002018054600181600116156101000203166002900480601f016020809104026020016040519081016040528092919081815260200182805460018160011615610100020316600290048015610d495780601f10610d1e57610100808354040283529160200191610d49565b820191906000526020600020905b815481529060010190602001808311610d2c57829003601f168201915b5050505050905083565b60058054600190810180835560008181526020838152604080832093845592909301869055925483529091208251610d93926002909201918401906116a6565b505050565b60075481565b60045481565b60055481565b6003602090815260009182526040918290208054600180830180548651600293821615610100026000190190911692909204601f810186900486028301860190965285825291949293909290830182828015610e475780601f10610e1c57610100808354040283529160200191610e47565b820191906000526020600020905b815481529060010190602001808311610e2a57829003601f168201915b50505060028085018054604080516020601f6000196101006001871615020190941695909504928301859004850281018501909152818152959695945090925090830182828015610d495780601f10610d1e57610100808354040283529160200191610d49565b60065481565b60015b6007548111610d9357610f78600360008381526020019081526020016000206001018054600181600116156101000203166002900480601f016020809104026020016040519081016040528092919081815260200182805460018160011615610100020316600290048015610f6d5780601f10610f4257610100808354040283529160200191610f6d565b820191906000526020600020905b815481529060010190602001808311610f5057829003601f168201915b50505050508461166c565b1561103c576000818152600360209081526040918290206002908101805484516001821615610100026000190190911692909204601f81018490048402830184019094528382526110249391929091908301828280156110195780601f10610fee57610100808354040283529160200191611019565b820191906000526020600020905b815481529060010190602001808311610ffc57829003601f168201915b50505050508361166c565b1561103c576000818152600360205260409020546008555b600101610eb7565b600480546001908101918290556000918252602082815260409092208751611074939190920191908801906116a6565b50600454600090815260208181526040909120855161109b926002909201918701906116a6565b5060045460009081526020818152604090912084516110c2926005909201918601906116a6565b5060045460009081526020818152604090912083516110e9926006909201918501906116a6565b506004546000908152602081815260409091208251611110926007909201918401906116a6565b50600480546000818152602081815260408083209384556003909301805460ff191690558251606081018452603981527f504c4541534520574149542054494c4c20414e204f4646494349414c20434f4e8183019081527f4649524d5320594f555220444f43554d454e54532e2e2e2e2e000000000000008286015285548452918390529290912091516111a89392909201916116a6565b505050505050565b60026020818152600092835260409283902080546001808301805487519281161561010002600019011695909504601f810185900485028201850190965285815290949193909290919083018282801561124b5780601f106112205761010080835404028352916020019161124b565b820191906000526020600020905b81548152906001019060200180831161122e57829003601f168201915b5050506002840154600385015460048601546005909601549495919473ffffffffffffffffffffffffffffffffffffffff91821694509116915086565b60085481565b600060208181529181526040908190208054600180830180548551600293821615610100026000190190911692909204601f81018790048702830187019095528482529194929390928301828280156113285780601f106112fd57610100808354040283529160200191611328565b820191906000526020600020905b81548152906001019060200180831161130b57829003601f168201915b50505060028085018054604080516020601f60001961010060018716150201909416959095049283018590048502810185019091528181529596959450909250908301828280156113ba5780601f1061138f576101008083540402835291602001916113ba565b820191906000526020600020905b81548152906001019060200180831161139d57829003601f168201915b50505050600383015460048401805460408051602060026101006001861615026000190190941693909304601f8101849004840282018401909252818152959660ff90941695939450908301828280156114555780601f1061142a57610100808354040283529160200191611455565b820191906000526020600020905b81548152906001019060200180831161143857829003601f168201915b5050505060058301805460408051602060026001851615610100026000190190941693909304601f81018490048402820184019092528181529495949350908301828280156114e55780601f106114ba576101008083540402835291602001916114e5565b820191906000526020600020905b8154815290600101906020018083116114c857829003601f168201915b5050505060068301805460408051602060026001851615610100026000190190941693909304601f81018490048402820184019092528181529495949350908301828280156115755780601f1061154a57610100808354040283529160200191611575565b820191906000526020600020905b81548152906001019060200180831161155857829003601f168201915b5050505060078301805460408051602060026001851615610100026000190190941693909304601f81018490048402820184019092528181529495949350908301828280156116055780601f106115da57610100808354040283529160200191611605565b820191906000526020600020905b8154815290600101906020018083116115e857829003601f168201915b5050505050905088565b60078054600190810191829055600082815260036020908152604090912092835584516116439390920191908501906116a6565b5060075460009081526003602090815260409091208251610d93926002909201918401906116a6565b600060608390506060839050808051906020012082805190602001201415611699576001925050506116a0565b6000925050505b92915050565b828054600181600116156101000203166002900490600052602060002090601f016020900481019282601f106116e757805160ff1916838001178555611714565b82800160010185558215611714579182015b828111156117145782518255916020019190600101906116f9565b50611720929150611724565b5090565b61173e91905b80821115611720576000815560010161172a565b9056fea165627a7a723058207d3841dbd895e2274e46756d5a3e64ff240d6669a5c7267f23593694a4f6be540029",
  "source": "pragma solidity ^0.5.0;\r\n//import \"github.com/ethereum/dapp-bin/library/stringUtils.sol\";\r\n\r\ncontract agriculture {\r\n\r\n\r\n  struct farmer {\r\n    uint id;\r\n    string adhar_number;\r\n    string name_of_farmer;\r\n    //string address_of_farmer;\r\n    bool validity;  //is he eligible to to get the goverment's money\r\n    string info; //information provided by the goverment regarding the payment of money.\r\n    string bank_account;\r\n    string acre_of_land;  //the acre of land the farmer owns\r\n    string residence_sate;  //the state where his farm belongs.\r\n\r\n  }\r\n\r\n  struct goverment {\r\n    uint id;\r\n    uint price_per_acre;  //this is usually decided by the state goverment how much money they want to give to their farmers depending upon the acre's of land they own.\r\n    string state_name;\r\n\r\n  }\r\n\r\n  struct blockchain_structure {\r\n\r\n      uint id;\r\n      string data;\r\n      uint nonce;\r\n      address hash;\r\n      address previous_hash;\r\n      uint timestamp;\r\n\r\n  }\r\n\r\n  struct database_account {\r\n\r\n      uint id;\r\n      string username;\r\n      string password;\r\n  }\r\n\r\n  mapping(uint => farmer) public farmers_dict;\r\n  mapping(uint => goverment) public goverments_dict;\r\n  mapping(uint => blockchain_structure) public blockchain;\r\n  mapping(uint => database_account)public database_accounts;\r\n\r\n\r\n  uint public number_of_farmers = 0;\r\n  uint public number_of_goverment = 0;\r\n  uint public number_of_blocks = 0;\r\n  uint public number_of_accounts_created = 0;\r\n  uint public current_account_id = 0;\r\n  uint lastcheckForValidity_numberOfFarmers = 0;\r\n\r\n  function databaseAccount(string memory _username, string memory _password) public {\r\n\r\n        number_of_accounts_created++;\r\n        database_accounts[number_of_accounts_created].id = number_of_accounts_created;\r\n        database_accounts[number_of_accounts_created].username = _username;\r\n        database_accounts[number_of_accounts_created].password = _password;\r\n\r\n\r\n  }\r\n\r\n  function equal(string memory _a, string memory _b) private pure returns(bool){\r\n      bytes memory aa = bytes(_a);\r\n      bytes memory bb = bytes(_b);\r\n\r\n      if(keccak256(aa) == keccak256(bb))\r\n        return true;\r\n      else\r\n        return false;\r\n  }\r\n\r\n\r\n  function login(string memory _username,string memory _password) public {\r\n        for(uint i=1;i<=number_of_accounts_created;i++){\r\n            if(equal(database_accounts[i].username,_username)){\r\n                if(equal(database_accounts[i].password,_password)){\r\n                    current_account_id = database_accounts[i].id;\r\n                }\r\n            }\r\n        }\r\n  }\r\n\r\n  function createFarmerAccount(string memory _adhar_number,string memory _name_of_farmer,\r\n                                string memory _bank_account ,string memory _acre_of_land,string memory _state_of_residence) public\r\n\r\n        {\r\n\r\n\r\n\r\n\r\n            number_of_farmers++;\r\n            farmers_dict[number_of_farmers].adhar_number = _adhar_number;\r\n            farmers_dict[number_of_farmers].name_of_farmer = _name_of_farmer;\r\n            //farmers_dict[number_of_farmers].address_of_farmer = _address_of_farmer;\r\n            farmers_dict[number_of_farmers].bank_account = _bank_account;\r\n            farmers_dict[number_of_farmers].acre_of_land = _acre_of_land;\r\n            farmers_dict[number_of_farmers].residence_sate = _state_of_residence;\r\n            farmers_dict[number_of_farmers].id = number_of_farmers;\r\n            farmers_dict[number_of_farmers].validity = false;\r\n            farmers_dict[number_of_farmers].info = \"PLEASE WAIT TILL AN OFFICIAL CONFIRMS YOUR DOCUMENTS.....\";\r\n\r\n\r\n        }\r\n\r\n  function createGovermentAccount(uint _price_per_acre,string memory _state_name) public{\r\n\r\n            number_of_goverment++;\r\n            goverments_dict[number_of_goverment].id = number_of_goverment;\r\n            goverments_dict[number_of_goverment].price_per_acre = _price_per_acre;\r\n            goverments_dict[number_of_goverment].state_name = _state_name;\r\n\r\n  }\r\n  /*\r\n\r\n  function checkValidityOfDocuments(string memory _state_name) public returns(string memory) {\r\n\r\n            if(lastcheckForValidity_numberOfFarmers == 0){\r\n                return(\"no farmers added\");\r\n            }\r\n            else{\r\n                for(uint i=lastcheckForValidity_numberOfFarmers;i<=number_of_farmers;i++){\r\n                    if(farmers_dict[i].validity == false){\r\n\r\n                    }\r\n                }\r\n            }\r\n\r\n  }\r\n\r\n  */\r\n\r\n\r\n}\r\n",
  "sourcePath": "D:/blockchain_agriculture/Agriculture-blockchain/contracts/agriculture.sol",
  "compiler": {
    "name": "solc",
    "version": "0.5.0+commit.1d4f565a.Emscripten.clang"
  },
  "schemaVersion": "3.0.2",
  "updatedAt": "2020-07-28T09:13:15.265Z",
  "devdoc": {
    "methods": {}
  },
  "userdoc": {
    "methods": {}
  }
}