{
  "contractName": "agriculture",
  "abi": [
    {
      "constant": true,
      "inputs": [
        {
          "name": "",
          "type": "uint256"
        }
      ],
      "name": "goverments_dict",
      "outputs": [
        {
          "name": "id",
          "type": "uint256"
        },
        {
          "name": "price_per_acre",
          "type": "uint256"
        },
        {
          "name": "state_name",
          "type": "string"
        }
      ],
      "payable": false,
      "stateMutability": "view",
      "type": "function",
      "signature": "0x08be55f7"
    },
    {
      "constant": true,
      "inputs": [],
      "name": "number_of_accounts_created",
      "outputs": [
        {
          "name": "",
          "type": "uint256"
        }
      ],
      "payable": false,
      "stateMutability": "view",
      "type": "function",
      "signature": "0x1314b8cc"
    },
    {
      "constant": true,
      "inputs": [],
      "name": "number_of_farmers",
      "outputs": [
        {
          "name": "",
          "type": "uint256"
        }
      ],
      "payable": false,
      "stateMutability": "view",
      "type": "function",
      "signature": "0x2f28df64"
    },
    {
      "constant": true,
      "inputs": [],
      "name": "number_of_goverment",
      "outputs": [
        {
          "name": "",
          "type": "uint256"
        }
      ],
      "payable": false,
      "stateMutability": "view",
      "type": "function",
      "signature": "0x3814276a"
    },
    {
      "constant": true,
      "inputs": [
        {
          "name": "",
          "type": "uint256"
        }
      ],
      "name": "database_accounts",
      "outputs": [
        {
          "name": "id",
          "type": "uint256"
        },
        {
          "name": "username",
          "type": "string"
        },
        {
          "name": "password",
          "type": "string"
        }
      ],
      "payable": false,
      "stateMutability": "view",
      "type": "function",
      "signature": "0x495b798d"
    },
    {
      "constant": true,
      "inputs": [],
      "name": "number_of_blocks",
      "outputs": [
        {
          "name": "",
          "type": "uint256"
        }
      ],
      "payable": false,
      "stateMutability": "view",
      "type": "function",
      "signature": "0x55b7b1fc"
    },
    {
      "constant": true,
      "inputs": [
        {
          "name": "",
          "type": "uint256"
        }
      ],
      "name": "blockchain",
      "outputs": [
        {
          "name": "id",
          "type": "uint256"
        },
        {
          "name": "data",
          "type": "string"
        },
        {
          "name": "nonce",
          "type": "uint256"
        },
        {
          "name": "hash",
          "type": "address"
        },
        {
          "name": "previous_hash",
          "type": "address"
        },
        {
          "name": "timestamp",
          "type": "uint256"
        }
      ],
      "payable": false,
      "stateMutability": "view",
      "type": "function",
      "signature": "0xc25b1eaf"
    },
    {
      "constant": true,
      "inputs": [],
      "name": "current_account_id",
      "outputs": [
        {
          "name": "",
          "type": "uint256"
        }
      ],
      "payable": false,
      "stateMutability": "view",
      "type": "function",
      "signature": "0xc651a85f"
    },
    {
      "constant": true,
      "inputs": [
        {
          "name": "",
          "type": "uint256"
        }
      ],
      "name": "farmers_dict",
      "outputs": [
        {
          "name": "id",
          "type": "uint256"
        },
        {
          "name": "adhar_number",
          "type": "string"
        },
        {
          "name": "name_of_farmer",
          "type": "string"
        },
        {
          "name": "validity",
          "type": "bool"
        },
        {
          "name": "info",
          "type": "string"
        },
        {
          "name": "bank_account",
          "type": "string"
        },
        {
          "name": "acre_of_land",
          "type": "string"
        },
        {
          "name": "residence_sate",
          "type": "string"
        }
      ],
      "payable": false,
      "stateMutability": "view",
      "type": "function",
      "signature": "0xc71ed7ad"
    },
    {
      "constant": false,
      "inputs": [],
      "name": "execute",
      "outputs": [],
      "payable": false,
      "stateMutability": "nonpayable",
      "type": "function",
      "signature": "0x61461954"
    },
    {
      "constant": false,
      "inputs": [
        {
          "name": "_username",
          "type": "string"
        },
        {
          "name": "_password",
          "type": "string"
        }
      ],
      "name": "databaseAccount",
      "outputs": [],
      "payable": false,
      "stateMutability": "nonpayable",
      "type": "function",
      "signature": "0xe7f16615"
    },
    {
      "constant": false,
      "inputs": [
        {
          "name": "_username",
          "type": "string"
        },
        {
          "name": "_password",
          "type": "string"
        }
      ],
      "name": "login",
      "outputs": [],
      "payable": false,
      "stateMutability": "nonpayable",
      "type": "function",
      "signature": "0x58467dbc"
    },
    {
      "constant": false,
      "inputs": [
        {
          "name": "_adhar_number",
          "type": "string"
        },
        {
          "name": "_name_of_farmer",
          "type": "string"
        },
        {
          "name": "_bank_account",
          "type": "string"
        },
        {
          "name": "_acre_of_land",
          "type": "string"
        },
        {
          "name": "_state_of_residence",
          "type": "string"
        }
      ],
      "name": "createFarmerAccount",
      "outputs": [],
      "payable": false,
      "stateMutability": "nonpayable",
      "type": "function",
      "signature": "0x96aa1d47"
    },
    {
      "constant": false,
      "inputs": [
        {
          "name": "_price_per_acre",
          "type": "uint256"
        },
        {
          "name": "_state_name",
          "type": "string"
        }
      ],
      "name": "createGovermentAccount",
      "outputs": [],
      "payable": false,
      "stateMutability": "nonpayable",
      "type": "function",
      "signature": "0x0c38f0f6"
    }
  ],
  "bytecode": "0x608060405260006004556000600555600060065560006007556000600855600060095534801561002e57600080fd5b5061187a8061003e6000396000f3fe6080604052600436106100cf5763ffffffff7c010000000000000000000000000000000000000000000000000000000060003504166308be55f781146100d45780630c38f0f6146101845780631314b8cc146102405780632f28df64146102675780633814276a1461027c578063495b798d1461029157806355b7b1fc146103a057806358467dbc146103b557806361461954146104ef57806396aa1d4714610504578063c25b1eaf146107d3578063c651a85f146108b0578063c71ed7ad146108c5578063e7f1661514610b77575b600080fd5b3480156100e057600080fd5b506100fe600480360360208110156100f757600080fd5b5035610cb1565b6040518084815260200183815260200180602001828103825283818151815260200191508051906020019080838360005b8381101561014757818101518382015260200161012f565b50505050905090810190601f1680156101745780820380516001836020036101000a031916815260200191505b5094505050505060405180910390f35b34801561019057600080fd5b5061023e600480360360408110156101a757600080fd5b813591908101906040810160208201356401000000008111156101c957600080fd5b8201836020820111156101db57600080fd5b803590602001918460018302840111640100000000831117156101fd57600080fd5b91908080601f016020809104026020016040519081016040528093929190818152602001838380828437600092019190915250929550610d73945050505050565b005b34801561024c57600080fd5b50610255610db8565b60408051918252519081900360200190f35b34801561027357600080fd5b50610255610dbe565b34801561028857600080fd5b50610255610dc4565b34801561029d57600080fd5b506102bb600480360360208110156102b457600080fd5b5035610dca565b604051808481526020018060200180602001838103835285818151815260200191508051906020019080838360005b838110156103025781810151838201526020016102ea565b50505050905090810190601f16801561032f5780820380516001836020036101000a031916815260200191505b50838103825284518152845160209182019186019080838360005b8381101561036257818101518382015260200161034a565b50505050905090810190601f16801561038f5780820380516001836020036101000a031916815260200191505b509550505050505060405180910390f35b3480156103ac57600080fd5b50610255610ece565b3480156103c157600080fd5b5061023e600480360360408110156103d857600080fd5b8101906020810181356401000000008111156103f357600080fd5b82018360208201111561040557600080fd5b8035906020019184600183028401116401000000008311171561042757600080fd5b91908080601f016020809104026020016040519081016040528093929190818152602001838380828437600092019190915250929594936020810193503591505064010000000081111561047a57600080fd5b82018360208201111561048c57600080fd5b803590602001918460018302840111640100000000831117156104ae57600080fd5b91908080601f016020809104026020016040519081016040528093929190818152602001838380828437600092019190915250929550610ed4945050505050565b3480156104fb57600080fd5b5061023e611064565b34801561051057600080fd5b5061023e600480360360a081101561052757600080fd5b81019060208101813564010000000081111561054257600080fd5b82018360208201111561055457600080fd5b8035906020019184600183028401116401000000008311171561057657600080fd5b91908080601f01602080910402602001604051908101604052809392919081815260200183838082843760009201919091525092959493602081019350359150506401000000008111156105c957600080fd5b8201836020820111156105db57600080fd5b803590602001918460018302840111640100000000831117156105fd57600080fd5b91908080601f016020809104026020016040519081016040528093929190818152602001838380828437600092019190915250929594936020810193503591505064010000000081111561065057600080fd5b82018360208201111561066257600080fd5b8035906020019184600183028401116401000000008311171561068457600080fd5b91908080601f01602080910402602001604051908101604052809392919081815260200183838082843760009201919091525092959493602081019350359150506401000000008111156106d757600080fd5b8201836020820111156106e957600080fd5b8035906020019184600183028401116401000000008311171561070b57600080fd5b91908080601f016020809104026020016040519081016040528093929190818152602001838380828437600092019190915250929594936020810193503591505064010000000081111561075e57600080fd5b82018360208201111561077057600080fd5b8035906020019184600183028401116401000000008311171561079257600080fd5b91908080601f016020809104026020016040519081016040528093929190818152602001838380828437600092019190915250929550611151945050505050565b3480156107df57600080fd5b506107fd600480360360208110156107f657600080fd5b50356112bd565b6040805187815290810185905273ffffffffffffffffffffffffffffffffffffffff80851660608301528316608082015260a0810182905260c06020808301828152885192840192909252875160e084019189019080838360005b83811015610870578181015183820152602001610858565b50505050905090810190601f16801561089d5780820380516001836020036101000a031916815260200191505b5097505050505050505060405180910390f35b3480156108bc57600080fd5b50610255611395565b3480156108d157600080fd5b506108ef600480360360208110156108e857600080fd5b503561139b565b604051808981526020018060200180602001881515151581526020018060200180602001806020018060200187810387528e818151815260200191508051906020019080838360005b83811015610950578181015183820152602001610938565b50505050905090810190601f16801561097d5780820380516001836020036101000a031916815260200191505b5087810386528d5181528d516020918201918f019080838360005b838110156109b0578181015183820152602001610998565b50505050905090810190601f1680156109dd5780820380516001836020036101000a031916815260200191505b5087810385528b5181528b516020918201918d019080838360005b83811015610a105781810151838201526020016109f8565b50505050905090810190601f168015610a3d5780820380516001836020036101000a031916815260200191505b5087810384528a5181528a516020918201918c019080838360005b83811015610a70578181015183820152602001610a58565b50505050905090810190601f168015610a9d5780820380516001836020036101000a031916815260200191505b5087810383528951815289516020918201918b019080838360005b83811015610ad0578181015183820152602001610ab8565b50505050905090810190601f168015610afd5780820380516001836020036101000a031916815260200191505b5087810382528851815288516020918201918a019080838360005b83811015610b30578181015183820152602001610b18565b50505050905090810190601f168015610b5d5780820380516001836020036101000a031916815260200191505b509e50505050505050505050505050505060405180910390f35b348015610b8357600080fd5b5061023e60048036036040811015610b9a57600080fd5b810190602081018135640100000000811115610bb557600080fd5b820183602082011115610bc757600080fd5b80359060200191846001830284011164010000000083111715610be957600080fd5b91908080601f0160208091040260200160405190810160405280939291908181526020018383808284376000920191909152509295949360208101935035915050640100000000811115610c3c57600080fd5b820183602082011115610c4e57600080fd5b80359060200191846001830284011164010000000083111715610c7057600080fd5b91908080601f01602080910402602001604051908101604052809392919081815260200183838082843760009201919091525092955061171c945050505050565b6001602052806000526040600020600091509050806000015490806001015490806002018054600181600116156101000203166002900480601f016020809104026020016040519081016040528092919081815260200182805460018160011615610100020316600290048015610d695780601f10610d3e57610100808354040283529160200191610d69565b820191906000526020600020905b815481529060010190602001808311610d4c57829003601f168201915b5050505050905083565b60058054600190810180835560008181526020838152604080832093845592909301869055925483529091208251610db3926002909201918401906117b3565b505050565b60075481565b60045481565b60055481565b6003602090815260009182526040918290208054600180830180548651600293821615610100026000190190911692909204601f810186900486028301860190965285825291949293909290830182828015610e675780601f10610e3c57610100808354040283529160200191610e67565b820191906000526020600020905b815481529060010190602001808311610e4a57829003601f168201915b50505060028085018054604080516020601f6000196101006001871615020190941695909504928301859004850281018501909152818152959695945090925090830182828015610d695780601f10610d3e57610100808354040283529160200191610d69565b60065481565b60015b6007548111610db357610f98600360008381526020019081526020016000206001018054600181600116156101000203166002900480601f016020809104026020016040519081016040528092919081815260200182805460018160011615610100020316600290048015610f8d5780601f10610f6257610100808354040283529160200191610f8d565b820191906000526020600020905b815481529060010190602001808311610f7057829003601f168201915b505050505084611779565b1561105c576000818152600360209081526040918290206002908101805484516001821615610100026000190190911692909204601f81018490048402830184019094528382526110449391929091908301828280156110395780601f1061100e57610100808354040283529160200191611039565b820191906000526020600020905b81548152906001019060200180831161101c57829003601f168201915b505050505083611779565b1561105c576000818152600360205260409020546008555b600101610ed7565b6009545b600454811161114e5760008181526020819052604090206003015460ff1615156111465760008181526020818152604080832060038101805460ff191660011790558151608081018352605381527f594f555220444f43554d454e545320415245205452554520414e442048454e438185019081527f4520544845205452414e53414354494f4e20484153204245454e20444f4e4521938201939093527f20434f4e47524154554c4154494f4e5321212100000000000000000000000000606082015285855293909252915161114492600490920191906117b3565b505b600101611068565b50565b600480546001908101918290556000918252602082815260409092208751611181939190920191908801906117b3565b5060045460009081526020818152604090912085516111a8926002909201918701906117b3565b5060045460009081526020818152604090912084516111cf926005909201918601906117b3565b5060045460009081526020818152604090912083516111f6926006909201918501906117b3565b50600454600090815260208181526040909120825161121d926007909201918401906117b3565b50600480546000818152602081815260408083209384556003909301805460ff191690558251606081018452603981527f504c4541534520574149542054494c4c20414e204f4646494349414c20434f4e8183019081527f4649524d5320594f555220444f43554d454e54532e2e2e2e2e000000000000008286015285548452918390529290912091516112b59392909201916117b3565b505050505050565b60026020818152600092835260409283902080546001808301805487519281161561010002600019011695909504601f81018590048502820185019096528581529094919390929091908301828280156113585780601f1061132d57610100808354040283529160200191611358565b820191906000526020600020905b81548152906001019060200180831161133b57829003601f168201915b5050506002840154600385015460048601546005909601549495919473ffffffffffffffffffffffffffffffffffffffff91821694509116915086565b60085481565b600060208181529181526040908190208054600180830180548551600293821615610100026000190190911692909204601f81018790048702830187019095528482529194929390928301828280156114355780601f1061140a57610100808354040283529160200191611435565b820191906000526020600020905b81548152906001019060200180831161141857829003601f168201915b50505060028085018054604080516020601f60001961010060018716150201909416959095049283018590048502810185019091528181529596959450909250908301828280156114c75780601f1061149c576101008083540402835291602001916114c7565b820191906000526020600020905b8154815290600101906020018083116114aa57829003601f168201915b50505050600383015460048401805460408051602060026101006001861615026000190190941693909304601f8101849004840282018401909252818152959660ff90941695939450908301828280156115625780601f1061153757610100808354040283529160200191611562565b820191906000526020600020905b81548152906001019060200180831161154557829003601f168201915b5050505060058301805460408051602060026001851615610100026000190190941693909304601f81018490048402820184019092528181529495949350908301828280156115f25780601f106115c7576101008083540402835291602001916115f2565b820191906000526020600020905b8154815290600101906020018083116115d557829003601f168201915b5050505060068301805460408051602060026001851615610100026000190190941693909304601f81018490048402820184019092528181529495949350908301828280156116825780601f1061165757610100808354040283529160200191611682565b820191906000526020600020905b81548152906001019060200180831161166557829003601f168201915b5050505060078301805460408051602060026001851615610100026000190190941693909304601f81018490048402820184019092528181529495949350908301828280156117125780601f106116e757610100808354040283529160200191611712565b820191906000526020600020905b8154815290600101906020018083116116f557829003601f168201915b5050505050905088565b60078054600190810191829055600082815260036020908152604090912092835584516117509390920191908501906117b3565b5060075460009081526003602090815260409091208251610db3926002909201918401906117b3565b6000606083905060608390508080519060200120828051906020012014156117a6576001925050506117ad565b6000925050505b92915050565b828054600181600116156101000203166002900490600052602060002090601f016020900481019282601f106117f457805160ff1916838001178555611821565b82800160010185558215611821579182015b82811115611821578251825591602001919060010190611806565b5061182d929150611831565b5090565b61184b91905b8082111561182d5760008155600101611837565b9056fea165627a7a723058201e0282c1f7c420475cfd0c13dbca05e3257408bd461054a8f70396d5148818920029",
  "source": "pragma solidity ^0.5.0;\r\n//import \"github.com/ethereum/dapp-bin/library/stringUtils.sol\";\r\n\r\ncontract agriculture {\r\n\r\n\r\n  struct farmer {\r\n    uint id;\r\n    string adhar_number;\r\n    string name_of_farmer;\r\n    //string address_of_farmer;\r\n    bool validity;  //is he eligible to to get the goverment's money\r\n    string info; //information provided by the goverment regarding the payment of money.\r\n    string bank_account;\r\n    string acre_of_land;  //the acre of land the farmer owns\r\n    string residence_sate;  //the state where his farm belongs.\r\n\r\n  }\r\n\r\n  struct goverment {\r\n    uint id;\r\n    uint price_per_acre;  //this is usually decided by the state goverment how much money they want to give to their farmers depending upon the acre's of land they own.\r\n    string state_name;\r\n\r\n  }\r\n\r\n  struct blockchain_structure {\r\n\r\n      uint id;\r\n      string data;\r\n      uint nonce;\r\n      address hash;\r\n      address previous_hash;\r\n      uint timestamp;\r\n\r\n  }\r\n\r\n  struct database_account {\r\n\r\n      uint id;\r\n      string username;\r\n      string password;\r\n  }\r\n\r\n  mapping(uint => farmer) public farmers_dict;\r\n  mapping(uint => goverment) public goverments_dict;\r\n  mapping(uint => blockchain_structure) public blockchain;\r\n  mapping(uint => database_account)public database_accounts;\r\n\r\n\r\n  uint public number_of_farmers = 0;\r\n  uint public number_of_goverment = 0;\r\n  uint public number_of_blocks = 0;\r\n  uint public number_of_accounts_created = 0;\r\n  uint public current_account_id = 0;\r\n  uint lastcheckForValidity_numberOfFarmers = 0;\r\n\r\n\r\n  function execute() public{\r\n\r\n      for(uint i = lastcheckForValidity_numberOfFarmers;i<=number_of_farmers;i++){\r\n          if(farmers_dict[i].validity == false){\r\n              farmers_dict[i].validity =true;\r\n              farmers_dict[i].info = \"YOUR DOCUMENTS ARE TRUE AND HENCE THE TRANSACTION HAS BEEN DONE! CONGRATULATIONS!!!\";\r\n          }\r\n      }\r\n\r\n  }\r\n\r\n  function databaseAccount(string memory _username, string memory _password) public {\r\n\r\n        number_of_accounts_created++;\r\n        database_accounts[number_of_accounts_created].id = number_of_accounts_created;\r\n        database_accounts[number_of_accounts_created].username = _username;\r\n        database_accounts[number_of_accounts_created].password = _password;\r\n\r\n\r\n  }\r\n\r\n  function equal(string memory _a, string memory _b) private pure returns(bool){\r\n      bytes memory aa = bytes(_a);\r\n      bytes memory bb = bytes(_b);\r\n\r\n      if(keccak256(aa) == keccak256(bb))\r\n        return true;\r\n      else\r\n        return false;\r\n  }\r\n\r\n\r\n  function login(string memory _username,string memory _password) public {\r\n        for(uint i=1;i<=number_of_accounts_created;i++){\r\n            if(equal(database_accounts[i].username,_username)){\r\n                if(equal(database_accounts[i].password,_password)){\r\n                    current_account_id = database_accounts[i].id;\r\n                }\r\n            }\r\n        }\r\n  }\r\n\r\n  function createFarmerAccount(string memory _adhar_number,string memory _name_of_farmer,\r\n                                string memory _bank_account ,string memory _acre_of_land,string memory _state_of_residence) public\r\n\r\n        {\r\n\r\n\r\n\r\n\r\n            number_of_farmers++;\r\n            farmers_dict[number_of_farmers].adhar_number = _adhar_number;\r\n            farmers_dict[number_of_farmers].name_of_farmer = _name_of_farmer;\r\n            //farmers_dict[number_of_farmers].address_of_farmer = _address_of_farmer;\r\n            farmers_dict[number_of_farmers].bank_account = _bank_account;\r\n            farmers_dict[number_of_farmers].acre_of_land = _acre_of_land;\r\n            farmers_dict[number_of_farmers].residence_sate = _state_of_residence;\r\n            farmers_dict[number_of_farmers].id = number_of_farmers;\r\n            farmers_dict[number_of_farmers].validity = false;\r\n            farmers_dict[number_of_farmers].info = \"PLEASE WAIT TILL AN OFFICIAL CONFIRMS YOUR DOCUMENTS.....\";\r\n\r\n\r\n        }\r\n\r\n  function createGovermentAccount(uint _price_per_acre,string memory _state_name) public{\r\n\r\n            number_of_goverment++;\r\n            goverments_dict[number_of_goverment].id = number_of_goverment;\r\n            goverments_dict[number_of_goverment].price_per_acre = _price_per_acre;\r\n            goverments_dict[number_of_goverment].state_name = _state_name;\r\n\r\n  }\r\n  /*\r\n\r\n  function checkValidityOfDocuments(string memory _state_name) public returns(string memory) {\r\n\r\n            if(lastcheckForValidity_numberOfFarmers == 0){\r\n                return(\"no farmers added\");\r\n            }\r\n            else{\r\n                for(uint i=lastcheckForValidity_numberOfFarmers;i<=number_of_farmers;i++){\r\n                    if(farmers_dict[i].validity == false){\r\n\r\n                    }\r\n                }\r\n            }\r\n\r\n  }\r\n\r\n  */\r\n\r\n\r\n}\r\n",
  "sourcePath": "D:/blockchain_agriculture/Agriculture-blockchain/contracts/agriculture.sol",
  "compiler": {
    "name": "solc",
    "version": "0.5.0+commit.1d4f565a.Emscripten.clang"
  },
  "schemaVersion": "3.0.2",
  "updatedAt": "2020-07-31T02:48:50.761Z",
  "devdoc": {
    "methods": {}
  },
  "userdoc": {
    "methods": {}
  }
}