{
  "contractName": "agriculture",
  "abi": [
    {
      "constant": true,
      "inputs": [
        {
          "name": "",
          "type": "uint256"
        }
      ],
      "name": "goverments_dict",
      "outputs": [
        {
          "name": "id",
          "type": "uint256"
        },
        {
          "name": "price_per_acre",
          "type": "uint256"
        },
        {
          "name": "state_name",
          "type": "string"
        }
      ],
      "payable": false,
      "stateMutability": "view",
      "type": "function",
      "signature": "0x08be55f7"
    },
    {
      "constant": true,
      "inputs": [],
      "name": "number_of_farmers",
      "outputs": [
        {
          "name": "",
          "type": "uint256"
        }
      ],
      "payable": false,
      "stateMutability": "view",
      "type": "function",
      "signature": "0x2f28df64"
    },
    {
      "constant": true,
      "inputs": [],
      "name": "number_of_goverment",
      "outputs": [
        {
          "name": "",
          "type": "uint256"
        }
      ],
      "payable": false,
      "stateMutability": "view",
      "type": "function",
      "signature": "0x3814276a"
    },
    {
      "constant": true,
      "inputs": [],
      "name": "number_of_blocks",
      "outputs": [
        {
          "name": "",
          "type": "uint256"
        }
      ],
      "payable": false,
      "stateMutability": "view",
      "type": "function",
      "signature": "0x55b7b1fc"
    },
    {
      "constant": true,
      "inputs": [
        {
          "name": "",
          "type": "uint256"
        }
      ],
      "name": "blockchain",
      "outputs": [
        {
          "name": "id",
          "type": "uint256"
        },
        {
          "name": "data",
          "type": "string"
        },
        {
          "name": "nonce",
          "type": "uint256"
        },
        {
          "name": "hash",
          "type": "address"
        },
        {
          "name": "previous_hash",
          "type": "address"
        },
        {
          "name": "timestamp",
          "type": "uint256"
        }
      ],
      "payable": false,
      "stateMutability": "view",
      "type": "function",
      "signature": "0xc25b1eaf"
    },
    {
      "constant": true,
      "inputs": [
        {
          "name": "",
          "type": "uint256"
        }
      ],
      "name": "farmers_dict",
      "outputs": [
        {
          "name": "id",
          "type": "uint256"
        },
        {
          "name": "adhar_number",
          "type": "uint256"
        },
        {
          "name": "name_of_farmer",
          "type": "string"
        },
        {
          "name": "address_of_farmer",
          "type": "string"
        },
        {
          "name": "validity",
          "type": "bool"
        },
        {
          "name": "info",
          "type": "string"
        },
        {
          "name": "bank_account",
          "type": "string"
        },
        {
          "name": "acre_of_land",
          "type": "uint256"
        },
        {
          "name": "residence_sate",
          "type": "string"
        }
      ],
      "payable": false,
      "stateMutability": "view",
      "type": "function",
      "signature": "0xc71ed7ad"
    },
    {
      "constant": false,
      "inputs": [
        {
          "name": "_adhar_number",
          "type": "uint256"
        },
        {
          "name": "_name_of_farmer",
          "type": "string"
        },
        {
          "name": "_address_of_farmer",
          "type": "string"
        },
        {
          "name": "_bank_account",
          "type": "string"
        },
        {
          "name": "_acre_of_land",
          "type": "uint256"
        },
        {
          "name": "_state_of_residence",
          "type": "string"
        }
      ],
      "name": "createFarmerAccount",
      "outputs": [],
      "payable": false,
      "stateMutability": "nonpayable",
      "type": "function",
      "signature": "0xdcb06f6f"
    },
    {
      "constant": false,
      "inputs": [
        {
          "name": "_price_per_acre",
          "type": "uint256"
        },
        {
          "name": "_state_name",
          "type": "string"
        }
      ],
      "name": "createGovermentAccount",
      "outputs": [],
      "payable": false,
      "stateMutability": "nonpayable",
      "type": "function",
      "signature": "0x0c38f0f6"
    }
  ],
  "bytecode": "0x6080604052600060035560006004556000600555600060065534801561002457600080fd5b50610eee806100346000396000f3fe60806040526004361061008d5763ffffffff7c010000000000000000000000000000000000000000000000000000000060003504166308be55f781146100925780630c38f0f6146101425780632f28df64146101fe5780633814276a1461022557806355b7b1fc1461023a578063c25b1eaf1461024f578063c71ed7ad1461032c578063dcb06f6f14610586575b600080fd5b34801561009e57600080fd5b506100bc600480360360208110156100b557600080fd5b50356107dd565b6040518084815260200183815260200180602001828103825283818151815260200191508051906020019080838360005b838110156101055781810151838201526020016100ed565b50505050905090810190601f1680156101325780820380516001836020036101000a031916815260200191505b5094505050505060405180910390f35b34801561014e57600080fd5b506101fc6004803603604081101561016557600080fd5b8135919081019060408101602082013564010000000081111561018757600080fd5b82018360208201111561019957600080fd5b803590602001918460018302840111640100000000831117156101bb57600080fd5b91908080601f01602080910402602001604051908101604052809392919081815260200183838082843760009201919091525092955061089f945050505050565b005b34801561020a57600080fd5b506102136108e4565b60408051918252519081900360200190f35b34801561023157600080fd5b506102136108ea565b34801561024657600080fd5b506102136108f0565b34801561025b57600080fd5b506102796004803603602081101561027257600080fd5b50356108f6565b6040805187815290810185905273ffffffffffffffffffffffffffffffffffffffff80851660608301528316608082015260a0810182905260c06020808301828152885192840192909252875160e084019189019080838360005b838110156102ec5781810151838201526020016102d4565b50505050905090810190601f1680156103195780820380516001836020036101000a031916815260200191505b5097505050505050505060405180910390f35b34801561033857600080fd5b506103566004803603602081101561034f57600080fd5b50356109ce565b604051808a815260200189815260200180602001806020018815151515815260200180602001806020018781526020018060200186810386528d818151815260200191508051906020019080838360005b838110156103bf5781810151838201526020016103a7565b50505050905090810190601f1680156103ec5780820380516001836020036101000a031916815260200191505b5086810385528c5181528c516020918201918e019080838360005b8381101561041f578181015183820152602001610407565b50505050905090810190601f16801561044c5780820380516001836020036101000a031916815260200191505b5086810384528a5181528a516020918201918c019080838360005b8381101561047f578181015183820152602001610467565b50505050905090810190601f1680156104ac5780820380516001836020036101000a031916815260200191505b5086810383528951815289516020918201918b019080838360005b838110156104df5781810151838201526020016104c7565b50505050905090810190601f16801561050c5780820380516001836020036101000a031916815260200191505b50868103825287518152875160209182019189019080838360005b8381101561053f578181015183820152602001610527565b50505050905090810190601f16801561056c5780820380516001836020036101000a031916815260200191505b509e50505050505050505050505050505060405180910390f35b34801561059257600080fd5b506101fc600480360360c08110156105a957600080fd5b813591908101906040810160208201356401000000008111156105cb57600080fd5b8201836020820111156105dd57600080fd5b803590602001918460018302840111640100000000831117156105ff57600080fd5b91908080601f016020809104026020016040519081016040528093929190818152602001838380828437600092019190915250929594936020810193503591505064010000000081111561065257600080fd5b82018360208201111561066457600080fd5b8035906020019184600183028401116401000000008311171561068657600080fd5b91908080601f01602080910402602001604051908101604052809392919081815260200183838082843760009201919091525092959493602081019350359150506401000000008111156106d957600080fd5b8201836020820111156106eb57600080fd5b8035906020019184600183028401116401000000008311171561070d57600080fd5b91908080601f0160208091040260200160405190810160405280939291908181526020018383808284376000920191909152509295843595909490935060408101925060200135905064010000000081111561076857600080fd5b82018360208201111561077a57600080fd5b8035906020019184600183028401116401000000008311171561079c57600080fd5b91908080601f016020809104026020016040519081016040528093929190818152602001838380828437600092019190915250929550610cc8945050505050565b6001602052806000526040600020600091509050806000015490806001015490806002018054600181600116156101000203166002900480601f0160208091040260200160405190810160405280929190818152602001828054600181600116156101000203166002900480156108955780601f1061086a57610100808354040283529160200191610895565b820191906000526020600020905b81548152906001019060200180831161087857829003601f168201915b5050505050905083565b600480546001908101808355600081815260208381526040808320938455929093018690559254835290912082516108df92600290920191840190610e27565b505050565b60035481565b60045481565b60055481565b60026020818152600092835260409283902080546001808301805487519281161561010002600019011695909504601f81018590048502820185019096528581529094919390929091908301828280156109915780601f1061096657610100808354040283529160200191610991565b820191906000526020600020905b81548152906001019060200180831161097457829003601f168201915b5050506002840154600385015460048601546005909601549495919473ffffffffffffffffffffffffffffffffffffffff91821694509116915086565b6000602081815291815260409081902080546001808301546002808501805487519481161561010002600019011691909104601f81018890048802840188019096528583529295909491929190830182828015610a6c5780601f10610a4157610100808354040283529160200191610a6c565b820191906000526020600020905b815481529060010190602001808311610a4f57829003601f168201915b5050505060038301805460408051602060026001851615610100026000190190941693909304601f8101849004840282018401909252818152949594935090830182828015610afc5780601f10610ad157610100808354040283529160200191610afc565b820191906000526020600020905b815481529060010190602001808311610adf57829003601f168201915b50505050600483015460058401805460408051602060026101006001861615026000190190941693909304601f8101849004840282018401909252818152959660ff9094169593945090830182828015610b975780601f10610b6c57610100808354040283529160200191610b97565b820191906000526020600020905b815481529060010190602001808311610b7a57829003601f168201915b5050505060068301805460408051602060026001851615610100026000190190941693909304601f8101849004840282018401909252818152949594935090830182828015610c275780601f10610bfc57610100808354040283529160200191610c27565b820191906000526020600020905b815481529060010190602001808311610c0a57829003601f168201915b50505050600783015460088401805460408051602060026001851615610100026000190190941693909304601f81018490048402820184019092528181529596939593945090830182828015610cbe5780601f10610c9357610100808354040283529160200191610cbe565b820191906000526020600020905b815481529060010190602001808311610ca157829003601f168201915b5050505050905089565b6003805460019081018083556000908152602081815260408083209093018a905592548152208651610d0292600290920191880190610e27565b50600380546000908152602081815260409091208651610d29939190910191870190610e27565b506003546000908152602081815260409091208451610d5092600690920191860190610e27565b5060038054600090815260208181526040808320600701869055925482529190208251610d8592600890920191840190610e27565b50600380546000818152602081815260408083209384556004909301805460ff191690558251606081018452603981527f504c4541534520574149542054494c4c20414e204f4646494349414c20434f4e8183019081527f4649524d5320594f555220444f43554d454e54532e2e2e2e2e000000000000008286015294548352908290529190209051610e1e9260059092019190610e27565b50505050505050565b828054600181600116156101000203166002900490600052602060002090601f016020900481019282601f10610e6857805160ff1916838001178555610e95565b82800160010185558215610e95579182015b82811115610e95578251825591602001919060010190610e7a565b50610ea1929150610ea5565b5090565b610ebf91905b80821115610ea15760008155600101610eab565b9056fea165627a7a72305820a46cad4bc8534273e3c8e201d59b878f0676d104ee53da18c1e5d0cc1ea7ee4d0029",
  "source": "pragma solidity ^0.5.0;\r\n\r\ncontract agriculture {\r\n\r\n\r\n  struct farmer {\r\n    uint id;\r\n    uint adhar_number;\r\n    string name_of_farmer;\r\n    string address_of_farmer;\r\n    bool validity;  //is he eligible to to get the goverment's money\r\n    string info; //information provided by the goverment regarding the payment of money.\r\n    string bank_account;\r\n    uint acre_of_land;  //the acre of land the farmer owns\r\n    string residence_sate;  //the state where his farm belongs.\r\n  }\r\n\r\n  struct goverment {\r\n    uint id;\r\n    uint price_per_acre;  //this is usually decided by the state goverment how much money they want to give to their farmers depending upon the acre's of land they own.\r\n    string state_name;\r\n\r\n  }\r\n\r\n  struct blockchain_structure {\r\n\r\n      uint id;\r\n      string data;\r\n      uint nonce;\r\n      address hash;\r\n      address previous_hash;\r\n      uint timestamp;\r\n\r\n  }\r\n\r\n  mapping(uint => farmer) public farmers_dict;\r\n  mapping(uint => goverment) public goverments_dict;\r\n  mapping(uint => blockchain_structure) public blockchain;\r\n\r\n  uint public number_of_farmers = 0;\r\n  uint public number_of_goverment = 0;\r\n  uint public number_of_blocks = 0;\r\n\r\n  uint lastcheckForValidity_numberOfFarmers = 0;\r\n\r\n  function createFarmerAccount(uint _adhar_number,string memory _name_of_farmer,string memory _address_of_farmer,\r\n                                string memory _bank_account ,uint _acre_of_land,string memory _state_of_residence) public\r\n\r\n        {\r\n\r\n\r\n            number_of_farmers++;\r\n            farmers_dict[number_of_farmers].adhar_number = _adhar_number;\r\n            farmers_dict[number_of_farmers].name_of_farmer = _name_of_farmer;\r\n            farmers_dict[number_of_farmers].address_of_farmer = _address_of_farmer;\r\n            farmers_dict[number_of_farmers].bank_account = _bank_account;\r\n            farmers_dict[number_of_farmers].acre_of_land = _acre_of_land;\r\n            farmers_dict[number_of_farmers].residence_sate = _state_of_residence;\r\n            farmers_dict[number_of_farmers].id = number_of_farmers;\r\n            farmers_dict[number_of_farmers].validity = false;\r\n            farmers_dict[number_of_farmers].info = \"PLEASE WAIT TILL AN OFFICIAL CONFIRMS YOUR DOCUMENTS.....\";\r\n\r\n\r\n        }\r\n\r\n  function createGovermentAccount(uint _price_per_acre,string memory _state_name) public{\r\n\r\n            number_of_goverment++;\r\n            goverments_dict[number_of_goverment].id = number_of_goverment;\r\n            goverments_dict[number_of_goverment].price_per_acre = _price_per_acre;\r\n            goverments_dict[number_of_goverment].state_name = _state_name;\r\n\r\n  }\r\n  /*\r\n\r\n  function checkValidityOfDocuments(string memory _state_name) public returns(string memory) {\r\n\r\n            if(lastcheckForValidity_numberOfFarmers == 0){\r\n                return(\"no farmers added\");\r\n            }\r\n            else{\r\n                for(uint i=lastcheckForValidity_numberOfFarmers;i<=number_of_farmers;i++){\r\n                    if(farmers_dict[i].validity == false){\r\n\r\n                    }\r\n                }\r\n            }\r\n\r\n  }\r\n\r\n  */\r\n\r\n\r\n}\r\n",
  "sourcePath": "D:/blockchain_agriculture/Agriculture-blockchain/contracts/agriculture.sol",
  "compiler": {
    "name": "solc",
    "version": "0.5.0+commit.1d4f565a.Emscripten.clang"
  },
  "schemaVersion": "3.0.2",
  "updatedAt": "2020-07-20T12:32:34.141Z",
  "devdoc": {
    "methods": {}
  },
  "userdoc": {
    "methods": {}
  }
}