{
  "contractName": "agriculture",
  "abi": [
    {
      "constant": true,
      "inputs": [
        {
          "name": "",
          "type": "uint256"
        }
      ],
      "name": "goverments_dict",
      "outputs": [
        {
          "name": "id",
          "type": "uint256"
        },
        {
          "name": "price_per_acre",
          "type": "uint256"
        },
        {
          "name": "state_name",
          "type": "string"
        }
      ],
      "payable": false,
      "stateMutability": "view",
      "type": "function",
      "signature": "0x08be55f7"
    },
    {
      "constant": true,
      "inputs": [],
      "name": "number_of_farmers",
      "outputs": [
        {
          "name": "",
          "type": "uint256"
        }
      ],
      "payable": false,
      "stateMutability": "view",
      "type": "function",
      "signature": "0x2f28df64"
    },
    {
      "constant": true,
      "inputs": [],
      "name": "number_of_goverment",
      "outputs": [
        {
          "name": "",
          "type": "uint256"
        }
      ],
      "payable": false,
      "stateMutability": "view",
      "type": "function",
      "signature": "0x3814276a"
    },
    {
      "constant": true,
      "inputs": [],
      "name": "number_of_blocks",
      "outputs": [
        {
          "name": "",
          "type": "uint256"
        }
      ],
      "payable": false,
      "stateMutability": "view",
      "type": "function",
      "signature": "0x55b7b1fc"
    },
    {
      "constant": true,
      "inputs": [
        {
          "name": "",
          "type": "uint256"
        }
      ],
      "name": "blockchain",
      "outputs": [
        {
          "name": "id",
          "type": "uint256"
        },
        {
          "name": "data",
          "type": "string"
        },
        {
          "name": "nonce",
          "type": "uint256"
        },
        {
          "name": "hash",
          "type": "address"
        },
        {
          "name": "previous_hash",
          "type": "address"
        },
        {
          "name": "timestamp",
          "type": "uint256"
        }
      ],
      "payable": false,
      "stateMutability": "view",
      "type": "function",
      "signature": "0xc25b1eaf"
    },
    {
      "constant": true,
      "inputs": [
        {
          "name": "",
          "type": "uint256"
        }
      ],
      "name": "farmers_dict",
      "outputs": [
        {
          "name": "id",
          "type": "uint256"
        },
        {
          "name": "adhar_number",
          "type": "string"
        },
        {
          "name": "name_of_farmer",
          "type": "string"
        },
        {
          "name": "validity",
          "type": "bool"
        },
        {
          "name": "info",
          "type": "string"
        },
        {
          "name": "bank_account",
          "type": "string"
        },
        {
          "name": "acre_of_land",
          "type": "string"
        },
        {
          "name": "residence_sate",
          "type": "string"
        }
      ],
      "payable": false,
      "stateMutability": "view",
      "type": "function",
      "signature": "0xc71ed7ad"
    },
    {
      "constant": false,
      "inputs": [
        {
          "name": "_adhar_number",
          "type": "string"
        },
        {
          "name": "_name_of_farmer",
          "type": "string"
        },
        {
          "name": "_bank_account",
          "type": "string"
        },
        {
          "name": "_acre_of_land",
          "type": "string"
        },
        {
          "name": "_state_of_residence",
          "type": "string"
        }
      ],
      "name": "createFarmerAccount",
      "outputs": [],
      "payable": false,
      "stateMutability": "nonpayable",
      "type": "function",
      "signature": "0x96aa1d47"
    },
    {
      "constant": false,
      "inputs": [
        {
          "name": "_price_per_acre",
          "type": "uint256"
        },
        {
          "name": "_state_name",
          "type": "string"
        }
      ],
      "name": "createGovermentAccount",
      "outputs": [],
      "payable": false,
      "stateMutability": "nonpayable",
      "type": "function",
      "signature": "0x0c38f0f6"
    }
  ],
  "bytecode": "0x6080604052600060035560006004556000600555600060065534801561002457600080fd5b50611051806100346000396000f3fe60806040526004361061008d5763ffffffff7c010000000000000000000000000000000000000000000000000000000060003504166308be55f781146100925780630c38f0f6146101425780632f28df64146101fe5780633814276a1461022557806355b7b1fc1461023a57806396aa1d471461024f578063c25b1eaf1461051e578063c71ed7ad146105fb575b600080fd5b34801561009e57600080fd5b506100bc600480360360208110156100b557600080fd5b50356108ad565b6040518084815260200183815260200180602001828103825283818151815260200191508051906020019080838360005b838110156101055781810151838201526020016100ed565b50505050905090810190601f1680156101325780820380516001836020036101000a031916815260200191505b5094505050505060405180910390f35b34801561014e57600080fd5b506101fc6004803603604081101561016557600080fd5b8135919081019060408101602082013564010000000081111561018757600080fd5b82018360208201111561019957600080fd5b803590602001918460018302840111640100000000831117156101bb57600080fd5b91908080601f01602080910402602001604051908101604052809392919081815260200183838082843760009201919091525092955061096f945050505050565b005b34801561020a57600080fd5b506102136109b4565b60408051918252519081900360200190f35b34801561023157600080fd5b506102136109ba565b34801561024657600080fd5b506102136109c0565b34801561025b57600080fd5b506101fc600480360360a081101561027257600080fd5b81019060208101813564010000000081111561028d57600080fd5b82018360208201111561029f57600080fd5b803590602001918460018302840111640100000000831117156102c157600080fd5b91908080601f016020809104026020016040519081016040528093929190818152602001838380828437600092019190915250929594936020810193503591505064010000000081111561031457600080fd5b82018360208201111561032657600080fd5b8035906020019184600183028401116401000000008311171561034857600080fd5b91908080601f016020809104026020016040519081016040528093929190818152602001838380828437600092019190915250929594936020810193503591505064010000000081111561039b57600080fd5b8201836020820111156103ad57600080fd5b803590602001918460018302840111640100000000831117156103cf57600080fd5b91908080601f016020809104026020016040519081016040528093929190818152602001838380828437600092019190915250929594936020810193503591505064010000000081111561042257600080fd5b82018360208201111561043457600080fd5b8035906020019184600183028401116401000000008311171561045657600080fd5b91908080601f01602080910402602001604051908101604052809392919081815260200183838082843760009201919091525092959493602081019350359150506401000000008111156104a957600080fd5b8201836020820111156104bb57600080fd5b803590602001918460018302840111640100000000831117156104dd57600080fd5b91908080601f0160208091040260200160405190810160405280939291908181526020018383808284376000920191909152509295506109c6945050505050565b34801561052a57600080fd5b506105486004803603602081101561054157600080fd5b5035610b31565b6040805187815290810185905273ffffffffffffffffffffffffffffffffffffffff80851660608301528316608082015260a0810182905260c06020808301828152885192840192909252875160e084019189019080838360005b838110156105bb5781810151838201526020016105a3565b50505050905090810190601f1680156105e85780820380516001836020036101000a031916815260200191505b5097505050505050505060405180910390f35b34801561060757600080fd5b506106256004803603602081101561061e57600080fd5b5035610c09565b604051808981526020018060200180602001881515151581526020018060200180602001806020018060200187810387528e818151815260200191508051906020019080838360005b8381101561068657818101518382015260200161066e565b50505050905090810190601f1680156106b35780820380516001836020036101000a031916815260200191505b5087810386528d5181528d516020918201918f019080838360005b838110156106e65781810151838201526020016106ce565b50505050905090810190601f1680156107135780820380516001836020036101000a031916815260200191505b5087810385528b5181528b516020918201918d019080838360005b8381101561074657818101518382015260200161072e565b50505050905090810190601f1680156107735780820380516001836020036101000a031916815260200191505b5087810384528a5181528a516020918201918c019080838360005b838110156107a657818101518382015260200161078e565b50505050905090810190601f1680156107d35780820380516001836020036101000a031916815260200191505b5087810383528951815289516020918201918b019080838360005b838110156108065781810151838201526020016107ee565b50505050905090810190601f1680156108335780820380516001836020036101000a031916815260200191505b5087810382528851815288516020918201918a019080838360005b8381101561086657818101518382015260200161084e565b50505050905090810190601f1680156108935780820380516001836020036101000a031916815260200191505b509e50505050505050505050505050505060405180910390f35b6001602052806000526040600020600091509050806000015490806001015490806002018054600181600116156101000203166002900480601f0160208091040260200160405190810160405280929190818152602001828054600181600116156101000203166002900480156109655780601f1061093a57610100808354040283529160200191610965565b820191906000526020600020905b81548152906001019060200180831161094857829003601f168201915b5050505050905083565b600480546001908101808355600081815260208381526040808320938455929093018690559254835290912082516109af92600290920191840190610f8a565b505050565b60035481565b60045481565b60055481565b6003805460019081019182905560009182526020828152604090922087516109f693919092019190880190610f8a565b506003546000908152602081815260409091208551610a1d92600290920191870190610f8a565b506003546000908152602081815260409091208451610a4492600590920191860190610f8a565b506003546000908152602081815260409091208351610a6b92600690920191850190610f8a565b506003546000908152602081815260409091208251610a9292600790920191840190610f8a565b5060038054600081815260208181526040808320938455928401805460ff191690558251606081018452603981527f504c4541534520574149542054494c4c20414e204f4646494349414c20434f4e8183019081527f4649524d5320594f555220444f43554d454e54532e2e2e2e2e000000000000008286015294548352908290529190209051610b299260049092019190610f8a565b505050505050565b60026020818152600092835260409283902080546001808301805487519281161561010002600019011695909504601f8101859004850282018501909652858152909491939092909190830182828015610bcc5780601f10610ba157610100808354040283529160200191610bcc565b820191906000526020600020905b815481529060010190602001808311610baf57829003601f168201915b5050506002840154600385015460048601546005909601549495919473ffffffffffffffffffffffffffffffffffffffff91821694509116915086565b600060208181529181526040908190208054600180830180548551600293821615610100026000190190911692909204601f8101879004870283018701909552848252919492939092830182828015610ca35780601f10610c7857610100808354040283529160200191610ca3565b820191906000526020600020905b815481529060010190602001808311610c8657829003601f168201915b50505060028085018054604080516020601f6000196101006001871615020190941695909504928301859004850281018501909152818152959695945090925090830182828015610d355780601f10610d0a57610100808354040283529160200191610d35565b820191906000526020600020905b815481529060010190602001808311610d1857829003601f168201915b50505050600383015460048401805460408051602060026101006001861615026000190190941693909304601f8101849004840282018401909252818152959660ff9094169593945090830182828015610dd05780601f10610da557610100808354040283529160200191610dd0565b820191906000526020600020905b815481529060010190602001808311610db357829003601f168201915b5050505060058301805460408051602060026001851615610100026000190190941693909304601f8101849004840282018401909252818152949594935090830182828015610e605780601f10610e3557610100808354040283529160200191610e60565b820191906000526020600020905b815481529060010190602001808311610e4357829003601f168201915b5050505060068301805460408051602060026001851615610100026000190190941693909304601f8101849004840282018401909252818152949594935090830182828015610ef05780601f10610ec557610100808354040283529160200191610ef0565b820191906000526020600020905b815481529060010190602001808311610ed357829003601f168201915b5050505060078301805460408051602060026001851615610100026000190190941693909304601f8101849004840282018401909252818152949594935090830182828015610f805780601f10610f5557610100808354040283529160200191610f80565b820191906000526020600020905b815481529060010190602001808311610f6357829003601f168201915b5050505050905088565b828054600181600116156101000203166002900490600052602060002090601f016020900481019282601f10610fcb57805160ff1916838001178555610ff8565b82800160010185558215610ff8579182015b82811115610ff8578251825591602001919060010190610fdd565b50611004929150611008565b5090565b61102291905b80821115611004576000815560010161100e565b9056fea165627a7a72305820ed7cf70784c219dbe518f9a1dcb9ae75f4bc864f57e2708717bd67ea6554c7980029",
  "source": "pragma solidity ^0.5.0;\r\n\r\ncontract agriculture {\r\n\r\n\r\n  struct farmer {\r\n    uint id;\r\n    string adhar_number;\r\n    string name_of_farmer;\r\n    //string address_of_farmer;\r\n    bool validity;  //is he eligible to to get the goverment's money\r\n    string info; //information provided by the goverment regarding the payment of money.\r\n    string bank_account;\r\n    string acre_of_land;  //the acre of land the farmer owns\r\n    string residence_sate;  //the state where his farm belongs.\r\n  }\r\n\r\n  struct goverment {\r\n    uint id;\r\n    uint price_per_acre;  //this is usually decided by the state goverment how much money they want to give to their farmers depending upon the acre's of land they own.\r\n    string state_name;\r\n\r\n  }\r\n\r\n  struct blockchain_structure {\r\n\r\n      uint id;\r\n      string data;\r\n      uint nonce;\r\n      address hash;\r\n      address previous_hash;\r\n      uint timestamp;\r\n\r\n  }\r\n\r\n  mapping(uint => farmer) public farmers_dict;\r\n  mapping(uint => goverment) public goverments_dict;\r\n  mapping(uint => blockchain_structure) public blockchain;\r\n\r\n  uint public number_of_farmers = 0;\r\n  uint public number_of_goverment = 0;\r\n  uint public number_of_blocks = 0;\r\n\r\n  uint lastcheckForValidity_numberOfFarmers = 0;\r\n\r\n  function createFarmerAccount(string memory _adhar_number,string memory _name_of_farmer,\r\n                                string memory _bank_account ,string memory _acre_of_land,string memory _state_of_residence) public\r\n\r\n        {\r\n\r\n\r\n            number_of_farmers++;\r\n            farmers_dict[number_of_farmers].adhar_number = _adhar_number;\r\n            farmers_dict[number_of_farmers].name_of_farmer = _name_of_farmer;\r\n            //farmers_dict[number_of_farmers].address_of_farmer = _address_of_farmer;\r\n            farmers_dict[number_of_farmers].bank_account = _bank_account;\r\n            farmers_dict[number_of_farmers].acre_of_land = _acre_of_land;\r\n            farmers_dict[number_of_farmers].residence_sate = _state_of_residence;\r\n            farmers_dict[number_of_farmers].id = number_of_farmers;\r\n            farmers_dict[number_of_farmers].validity = false;\r\n            farmers_dict[number_of_farmers].info = \"PLEASE WAIT TILL AN OFFICIAL CONFIRMS YOUR DOCUMENTS.....\";\r\n\r\n\r\n        }\r\n\r\n  function createGovermentAccount(uint _price_per_acre,string memory _state_name) public{\r\n\r\n            number_of_goverment++;\r\n            goverments_dict[number_of_goverment].id = number_of_goverment;\r\n            goverments_dict[number_of_goverment].price_per_acre = _price_per_acre;\r\n            goverments_dict[number_of_goverment].state_name = _state_name;\r\n\r\n  }\r\n  /*\r\n\r\n  function checkValidityOfDocuments(string memory _state_name) public returns(string memory) {\r\n\r\n            if(lastcheckForValidity_numberOfFarmers == 0){\r\n                return(\"no farmers added\");\r\n            }\r\n            else{\r\n                for(uint i=lastcheckForValidity_numberOfFarmers;i<=number_of_farmers;i++){\r\n                    if(farmers_dict[i].validity == false){\r\n\r\n                    }\r\n                }\r\n            }\r\n\r\n  }\r\n\r\n  */\r\n\r\n\r\n}\r\n",
  "sourcePath": "D:/blockchain_agriculture/Agriculture-blockchain/contracts/agriculture.sol",
  "compiler": {
    "name": "solc",
    "version": "0.5.0+commit.1d4f565a.Emscripten.clang"
  },
  "schemaVersion": "3.0.2",
  "updatedAt": "2020-07-20T16:53:00.043Z",
  "devdoc": {
    "methods": {}
  },
  "userdoc": {
    "methods": {}
  }
}